{
  "_format": "hh-sol-artifact-1",
  "contractName": "TokanM",
  "sourceName": "contracts/TokanM.sol",
  "abi": [
    {
      "inputs": [],
      "stateMutability": "nonpayable",
      "type": "constructor"
    },
    {
      "anonymous": false,
      "inputs": [
        {
          "indexed": true,
          "internalType": "address",
          "name": "owner",
          "type": "address"
        },
        {
          "indexed": true,
          "internalType": "address",
          "name": "spender",
          "type": "address"
        },
        {
          "indexed": false,
          "internalType": "uint256",
          "name": "value",
          "type": "uint256"
        }
      ],
      "name": "Approval",
      "type": "event"
    },
    {
      "anonymous": false,
      "inputs": [
        {
          "indexed": true,
          "internalType": "address",
          "name": "previousOwner",
          "type": "address"
        },
        {
          "indexed": true,
          "internalType": "address",
          "name": "newOwner",
          "type": "address"
        }
      ],
      "name": "OwnershipTransferred",
      "type": "event"
    },
    {
      "anonymous": false,
      "inputs": [
        {
          "indexed": false,
          "internalType": "address",
          "name": "account",
          "type": "address"
        }
      ],
      "name": "Paused",
      "type": "event"
    },
    {
      "anonymous": false,
      "inputs": [
        {
          "indexed": true,
          "internalType": "address",
          "name": "from",
          "type": "address"
        },
        {
          "indexed": true,
          "internalType": "address",
          "name": "to",
          "type": "address"
        },
        {
          "indexed": false,
          "internalType": "uint256",
          "name": "value",
          "type": "uint256"
        }
      ],
      "name": "Transfer",
      "type": "event"
    },
    {
      "anonymous": false,
      "inputs": [
        {
          "indexed": false,
          "internalType": "address",
          "name": "account",
          "type": "address"
        }
      ],
      "name": "Unpaused",
      "type": "event"
    },
    {
      "inputs": [],
      "name": "INITIAL_SUPPLY",
      "outputs": [
        {
          "internalType": "uint256",
          "name": "",
          "type": "uint256"
        }
      ],
      "stateMutability": "view",
      "type": "function"
    },
    {
      "inputs": [
        {
          "internalType": "address",
          "name": "owner",
          "type": "address"
        },
        {
          "internalType": "address",
          "name": "spender",
          "type": "address"
        }
      ],
      "name": "allowance",
      "outputs": [
        {
          "internalType": "uint256",
          "name": "",
          "type": "uint256"
        }
      ],
      "stateMutability": "view",
      "type": "function"
    },
    {
      "inputs": [
        {
          "internalType": "address",
          "name": "spender",
          "type": "address"
        },
        {
          "internalType": "uint256",
          "name": "amount",
          "type": "uint256"
        }
      ],
      "name": "approve",
      "outputs": [
        {
          "internalType": "bool",
          "name": "",
          "type": "bool"
        }
      ],
      "stateMutability": "nonpayable",
      "type": "function"
    },
    {
      "inputs": [
        {
          "internalType": "address",
          "name": "account",
          "type": "address"
        }
      ],
      "name": "balanceOf",
      "outputs": [
        {
          "internalType": "uint256",
          "name": "",
          "type": "uint256"
        }
      ],
      "stateMutability": "view",
      "type": "function"
    },
    {
      "inputs": [
        {
          "internalType": "uint256",
          "name": "amount",
          "type": "uint256"
        }
      ],
      "name": "burn",
      "outputs": [],
      "stateMutability": "nonpayable",
      "type": "function"
    },
    {
      "inputs": [
        {
          "internalType": "address",
          "name": "account",
          "type": "address"
        },
        {
          "internalType": "uint256",
          "name": "amount",
          "type": "uint256"
        }
      ],
      "name": "burnFrom",
      "outputs": [],
      "stateMutability": "nonpayable",
      "type": "function"
    },
    {
      "inputs": [],
      "name": "decimals",
      "outputs": [
        {
          "internalType": "uint8",
          "name": "",
          "type": "uint8"
        }
      ],
      "stateMutability": "view",
      "type": "function"
    },
    {
      "inputs": [
        {
          "internalType": "address",
          "name": "spender",
          "type": "address"
        },
        {
          "internalType": "uint256",
          "name": "subtractedValue",
          "type": "uint256"
        }
      ],
      "name": "decreaseAllowance",
      "outputs": [
        {
          "internalType": "bool",
          "name": "",
          "type": "bool"
        }
      ],
      "stateMutability": "nonpayable",
      "type": "function"
    },
    {
      "inputs": [
        {
          "internalType": "address",
          "name": "spender",
          "type": "address"
        },
        {
          "internalType": "uint256",
          "name": "addedValue",
          "type": "uint256"
        }
      ],
      "name": "increaseAllowance",
      "outputs": [
        {
          "internalType": "bool",
          "name": "",
          "type": "bool"
        }
      ],
      "stateMutability": "nonpayable",
      "type": "function"
    },
    {
      "inputs": [
        {
          "internalType": "address",
          "name": "to",
          "type": "address"
        },
        {
          "internalType": "uint256",
          "name": "amount",
          "type": "uint256"
        }
      ],
      "name": "mint",
      "outputs": [],
      "stateMutability": "nonpayable",
      "type": "function"
    },
    {
      "inputs": [],
      "name": "name",
      "outputs": [
        {
          "internalType": "string",
          "name": "",
          "type": "string"
        }
      ],
      "stateMutability": "view",
      "type": "function"
    },
    {
      "inputs": [],
      "name": "owner",
      "outputs": [
        {
          "internalType": "address",
          "name": "",
          "type": "address"
        }
      ],
      "stateMutability": "view",
      "type": "function"
    },
    {
      "inputs": [],
      "name": "pause",
      "outputs": [],
      "stateMutability": "nonpayable",
      "type": "function"
    },
    {
      "inputs": [],
      "name": "paused",
      "outputs": [
        {
          "internalType": "bool",
          "name": "",
          "type": "bool"
        }
      ],
      "stateMutability": "view",
      "type": "function"
    },
    {
      "inputs": [],
      "name": "renounceOwnership",
      "outputs": [],
      "stateMutability": "nonpayable",
      "type": "function"
    },
    {
      "inputs": [],
      "name": "symbol",
      "outputs": [
        {
          "internalType": "string",
          "name": "",
          "type": "string"
        }
      ],
      "stateMutability": "view",
      "type": "function"
    },
    {
      "inputs": [],
      "name": "totalSupply",
      "outputs": [
        {
          "internalType": "uint256",
          "name": "",
          "type": "uint256"
        }
      ],
      "stateMutability": "view",
      "type": "function"
    },
    {
      "inputs": [
        {
          "internalType": "address",
          "name": "to",
          "type": "address"
        },
        {
          "internalType": "uint256",
          "name": "amount",
          "type": "uint256"
        }
      ],
      "name": "transfer",
      "outputs": [
        {
          "internalType": "bool",
          "name": "",
          "type": "bool"
        }
      ],
      "stateMutability": "nonpayable",
      "type": "function"
    },
    {
      "inputs": [
        {
          "internalType": "address",
          "name": "from",
          "type": "address"
        },
        {
          "internalType": "address",
          "name": "to",
          "type": "address"
        },
        {
          "internalType": "uint256",
          "name": "amount",
          "type": "uint256"
        }
      ],
      "name": "transferFrom",
      "outputs": [
        {
          "internalType": "bool",
          "name": "",
          "type": "bool"
        }
      ],
      "stateMutability": "nonpayable",
      "type": "function"
    },
    {
      "inputs": [
        {
          "internalType": "address",
          "name": "newOwner",
          "type": "address"
        }
      ],
      "name": "transferOwnership",
      "outputs": [],
      "stateMutability": "nonpayable",
      "type": "function"
    },
    {
      "inputs": [],
      "name": "unpause",
      "outputs": [],
      "stateMutability": "nonpayable",
      "type": "function"
    }
  ],
  "bytecode": "0x60806040523480156200001157600080fd5b506040518060400160405280600c81526020016b2a37b5b0b726902a37b5b2b760a11b81525060405180604001604052806002815260200161544d60f01b8152508160039081620000639190620002f3565b506004620000728282620002f3565b50506005805460ff19169055506200008a33620000a6565b620000a03369d3c21bcecceda100000062000100565b620003e7565b600580546001600160a01b03838116610100818102610100600160a81b031985161790945560405193909204169182907f8be0079c531659141344cd1fd0a4f28419497f9722a3daafe3b4186f6b6457e090600090a35050565b6001600160a01b0382166200015c5760405162461bcd60e51b815260206004820152601f60248201527f45524332303a206d696e7420746f20746865207a65726f20616464726573730060448201526064015b60405180910390fd5b6200016a60008383620001d5565b80600260008282546200017e9190620003bf565b90915550506001600160a01b038216600081815260208181526040808320805486019055518481527fddf252ad1be2c89b69c2b068fc378daa952ba7f163c4a11628f55a4df523b3ef910160405180910390a35050565b620001e2838383620001e7565b505050565b60055460ff1615620001e25760405162461bcd60e51b815260206004820152602a60248201527f45524332305061757361626c653a20746f6b656e207472616e736665722077686044820152691a5b19481c185d5cd95960b21b606482015260840162000153565b634e487b7160e01b600052604160045260246000fd5b600181811c908216806200027a57607f821691505b6020821081036200029b57634e487b7160e01b600052602260045260246000fd5b50919050565b601f821115620001e257600081815260208120601f850160051c81016020861015620002ca5750805b601f850160051c820191505b81811015620002eb57828155600101620002d6565b505050505050565b81516001600160401b038111156200030f576200030f6200024f565b620003278162000320845462000265565b84620002a1565b602080601f8311600181146200035f5760008415620003465750858301515b600019600386901b1c1916600185901b178555620002eb565b600085815260208120601f198616915b8281101562000390578886015182559484019460019091019084016200036f565b5085821015620003af5787850151600019600388901b60f8161c191681555b5050505050600190811b01905550565b80820180821115620003e157634e487b7160e01b600052601160045260246000fd5b92915050565b610ee180620003f76000396000f3fe608060405234801561001057600080fd5b50600436106101375760003560e01c80635c975abb116100b85780638da5cb5b1161007c5780638da5cb5b1461025c57806395d89b4114610285578063a457c2d71461028d578063a9059cbb146102a0578063dd62ed3e146102b3578063f2fde38b146102c657600080fd5b80635c975abb1461020557806370a0823114610210578063715018a61461023957806379cc6790146102415780638456cb591461025457600080fd5b8063313ce567116100ff578063313ce567146101b357806339509351146101c25780633f4ba83a146101d557806340c10f19146101df57806342966c68146101f257600080fd5b806306fdde031461013c578063095ea7b31461015a57806318160ddd1461017d57806323b872dd1461018f5780632ff2e9dc146101a2575b600080fd5b6101446102d9565b6040516101519190610d12565b60405180910390f35b61016d610168366004610d7c565b61036b565b6040519015158152602001610151565b6002545b604051908152602001610151565b61016d61019d366004610da6565b610385565b61018169d3c21bcecceda100000081565b60405160128152602001610151565b61016d6101d0366004610d7c565b6103a9565b6101dd6103cb565b005b6101dd6101ed366004610d7c565b6103dd565b6101dd610200366004610de2565b6103f3565b60055460ff1661016d565b61018161021e366004610dfb565b6001600160a01b031660009081526020819052604090205490565b6101dd610400565b6101dd61024f366004610d7c565b610412565b6101dd610427565b60055461010090046001600160a01b03166040516001600160a01b039091168152602001610151565b610144610437565b61016d61029b366004610d7c565b610446565b61016d6102ae366004610d7c565b6104c6565b6101816102c1366004610e1d565b6104d4565b6101dd6102d4366004610dfb565b6104ff565b6060600380546102e890610e50565b80601f016020809104026020016040519081016040528092919081815260200182805461031490610e50565b80156103615780601f1061033657610100808354040283529160200191610361565b820191906000526020600020905b81548152906001019060200180831161034457829003601f168201915b5050505050905090565b600033610379818585610575565b60019150505b92915050565b60003361039385828561069a565b61039e858585610714565b506001949350505050565b6000336103798185856103bc83836104d4565b6103c69190610e8a565b610575565b6103d36108c3565b6103db610923565b565b6103e56108c3565b6103ef8282610975565b5050565b6103fd3382610a40565b50565b6104086108c3565b6103db6000610b7b565b61041d82338361069a565b6103ef8282610a40565b61042f6108c3565b6103db610bd5565b6060600480546102e890610e50565b6000338161045482866104d4565b9050838110156104b95760405162461bcd60e51b815260206004820152602560248201527f45524332303a2064656372656173656420616c6c6f77616e63652062656c6f77604482015264207a65726f60d81b60648201526084015b60405180910390fd5b61039e8286868403610575565b600033610379818585610714565b6001600160a01b03918216600090815260016020908152604080832093909416825291909152205490565b6105076108c3565b6001600160a01b03811661056c5760405162461bcd60e51b815260206004820152602660248201527f4f776e61626c653a206e6577206f776e657220697320746865207a65726f206160448201526564647265737360d01b60648201526084016104b0565b6103fd81610b7b565b6001600160a01b0383166105d75760405162461bcd60e51b8152602060048201526024808201527f45524332303a20617070726f76652066726f6d20746865207a65726f206164646044820152637265737360e01b60648201526084016104b0565b6001600160a01b0382166106385760405162461bcd60e51b815260206004820152602260248201527f45524332303a20617070726f766520746f20746865207a65726f206164647265604482015261737360f01b60648201526084016104b0565b6001600160a01b0383811660008181526001602090815260408083209487168084529482529182902085905590518481527f8c5be1e5ebec7d5bd14f71427d1e84f3dd0314c0f7b2291e5b200ac8c7c3b92591015b60405180910390a3505050565b60006106a684846104d4565b9050600019811461070e57818110156107015760405162461bcd60e51b815260206004820152601d60248201527f45524332303a20696e73756666696369656e7420616c6c6f77616e636500000060448201526064016104b0565b61070e8484848403610575565b50505050565b6001600160a01b0383166107785760405162461bcd60e51b815260206004820152602560248201527f45524332303a207472616e736665722066726f6d20746865207a65726f206164604482015264647265737360d81b60648201526084016104b0565b6001600160a01b0382166107da5760405162461bcd60e51b815260206004820152602360248201527f45524332303a207472616e7366657220746f20746865207a65726f206164647260448201526265737360e81b60648201526084016104b0565b6107e5838383610c12565b6001600160a01b0383166000908152602081905260409020548181101561085d5760405162461bcd60e51b815260206004820152602660248201527f45524332303a207472616e7366657220616d6f756e7420657863656564732062604482015265616c616e636560d01b60648201526084016104b0565b6001600160a01b03848116600081815260208181526040808320878703905593871680835291849020805487019055925185815290927fddf252ad1be2c89b69c2b068fc378daa952ba7f163c4a11628f55a4df523b3ef910160405180910390a361070e565b6005546001600160a01b036101009091041633146103db5760405162461bcd60e51b815260206004820181905260248201527f4f776e61626c653a2063616c6c6572206973206e6f7420746865206f776e657260448201526064016104b0565b61092b610c1d565b6005805460ff191690557f5db9ee0a495bf2e6ff9c91a7834c1ba4fdd244a5e8aa4e537bd38aeae4b073aa335b6040516001600160a01b03909116815260200160405180910390a1565b6001600160a01b0382166109cb5760405162461bcd60e51b815260206004820152601f60248201527f45524332303a206d696e7420746f20746865207a65726f20616464726573730060448201526064016104b0565b6109d760008383610c12565b80600260008282546109e99190610e8a565b90915550506001600160a01b038216600081815260208181526040808320805486019055518481527fddf252ad1be2c89b69c2b068fc378daa952ba7f163c4a11628f55a4df523b3ef910160405180910390a35050565b6001600160a01b038216610aa05760405162461bcd60e51b815260206004820152602160248201527f45524332303a206275726e2066726f6d20746865207a65726f206164647265736044820152607360f81b60648201526084016104b0565b610aac82600083610c12565b6001600160a01b03821660009081526020819052604090205481811015610b205760405162461bcd60e51b815260206004820152602260248201527f45524332303a206275726e20616d6f756e7420657863656564732062616c616e604482015261636560f01b60648201526084016104b0565b6001600160a01b0383166000818152602081815260408083208686039055600280548790039055518581529192917fddf252ad1be2c89b69c2b068fc378daa952ba7f163c4a11628f55a4df523b3ef910161068d565b505050565b600580546001600160a01b03838116610100818102610100600160a81b031985161790945560405193909204169182907f8be0079c531659141344cd1fd0a4f28419497f9722a3daafe3b4186f6b6457e090600090a35050565b610bdd610c66565b6005805460ff191660011790557f62e78cea01bee320cd4e420270b5ea74000d11b0c9f74754ebdbfc544b05a2586109583390565b610b76838383610cac565b60055460ff166103db5760405162461bcd60e51b815260206004820152601460248201527314185d5cd8589b194e881b9bdd081c185d5cd95960621b60448201526064016104b0565b60055460ff16156103db5760405162461bcd60e51b815260206004820152601060248201526f14185d5cd8589b194e881c185d5cd95960821b60448201526064016104b0565b60055460ff1615610b765760405162461bcd60e51b815260206004820152602a60248201527f45524332305061757361626c653a20746f6b656e207472616e736665722077686044820152691a5b19481c185d5cd95960b21b60648201526084016104b0565b600060208083528351808285015260005b81811015610d3f57858101830151858201604001528201610d23565b506000604082860101526040601f19601f8301168501019250505092915050565b80356001600160a01b0381168114610d7757600080fd5b919050565b60008060408385031215610d8f57600080fd5b610d9883610d60565b946020939093013593505050565b600080600060608486031215610dbb57600080fd5b610dc484610d60565b9250610dd260208501610d60565b9150604084013590509250925092565b600060208284031215610df457600080fd5b5035919050565b600060208284031215610e0d57600080fd5b610e1682610d60565b9392505050565b60008060408385031215610e3057600080fd5b610e3983610d60565b9150610e4760208401610d60565b90509250929050565b600181811c90821680610e6457607f821691505b602082108103610e8457634e487b7160e01b600052602260045260246000fd5b50919050565b8082018082111561037f57634e487b7160e01b600052601160045260246000fdfea26469706673582212202d887e15a48cd1f2f0434ee774b18a0a0af5c3e13b7545154764565b36fc464564736f6c63430008140033",
  "linkReferences": {},
  "deployedLinkReferences": {}
}